:100000000C9477000C94B9000C94380E0C94B90041
:100010000C94B9000C94090E0C945B4E0C94B9002E
:100020000C94B9000C94B9000C94B9000C94B9006C
:100030000C94B9000C94B9000C9411120C949140DA
:100040000C94B9000C94B9000C94F2480C945449E7
:100050000C94B9000C94B9000C94B9000C94B9003C
:100060000C94B9000C94B9000C94B9000C94B9002C
:100070000C94B9000C94B9000C94CE490C943F4AEE
:100080000C94B9000C94B9000C94B900554F584F1A
:100090005B4F634F664F694F6C4F6F4F724FA14F6D
:1000A000C64FCB4FD04FD54FDA4FEF4FF34F2E50B7
:1000B00039504750524F524F524F524F8B508E50E3
:1000C0009550A850AB50B550524FB850C050C35087
:1000D000CB50CE50D650D950E150F84F0D5019505A
:1000E0002E50524F524F524F524F4B50795080EC3E
:1000F00085BF11241FBECFEFD0E1DEBFCDBF1CE016
:10010000A0E0B1E0EEECF7EC00E00BBF02C007901E
:100110000D92A63DB107D9F71DE0A6EDBCE001C0E8
:100120001D92AF3DB107E1F78FEF9FE79EBF8DBFF7
:100130008FEF9FE78F5D9D408158914050F04FEFCA
:100140005EE74F5D5D4088EB9DE06FED7DE00E94D6
:1001500084380E94B53E8EEB9AE06EE676E140E090
:1001600050E020E831E00E941D3F0E9400000C9406
:10017000E5630C940000CF92DF92EF92FF920F9311
:100180001F93DF93CF9300D00F92CDB7DEB78E9839
:10019000969A8C98949A849B02C0869909C080E0B4
:1001A0000E94541080E00E94B70D80E00E94B80DBC
:1001B000198281E08A838FE18B83CE0101960E94B0
:1001C00025130E9491140E94601480E040E052ECDC
:1001D00061E070E000E010E020E030E00E94C90241
:1001E000892B59F000D080E091E0EDB7FEB7928303
:1001F00081830E94CE590F900F9081E040E051EE34
:1002000060E070E000E213E020E030E00E94C9020C
:10021000892B59F000D08EE191E0EDB7FEB79283C3
:1002200081830E94CE590F900F900E94E2106F5F61
:100230007F4F8F4F904071F480E00E94B70D80E0B7
:100240000E94B80D62E770E080E090E00E94CF105D
:100250000E94140D0E94E2107B018C0180E060E09E
:1002600070E040E050E020E030E00E9404150E9481
:10027000E90D0E94B90D0E946A0E0E94660D0E944F
:100280007A0D40917E0C50917F0C8CE391E062E4FA
:1002900071E00E94C55840917C0C50917D0C8CE31C
:1002A00091E066E471E00E94C55800D08AE491E0D4
:1002B000EDB7FEB7928381830E94CE5984E791E027
:1002C000EDB7FEB7928381830E94CE598EE991E00B
:1002D000EDB7FEB7928381830E94CE5988EC91E0FE
:1002E000EDB7FEB7928381830E94CE590F900F9095
:1002F0000E945D0D8FE09CE060E073E845E00E94A5
:100300008A3E892B59F000D082EF91E0EDB7FEB71D
:10031000928381830E94CE590F900F902091A20D5D
:100320003091A30D4091A40D5091A50DE090A60D24
:10033000F090A70D0091A80D1091A90D8FE092E00B
:100340006CE97DE00E944D218091A20D9091A30D5A
:10035000A091A40DB091A50D0097A105B105D9F00C
:10036000E090AA0DF090AB0D0091AC0D1091AD0D89
:10037000E114F1040105110571F060E070E080E026
:1003800090E020E030E040E050E0EFE0CE2EECE006
:10039000DE2E0E94381E0E942D0284E192E060EE63
:1003A00074E040E050E020E032E00E941D3F8BE12D
:1003B00092E067E973E140E050E020E031E00E9424
:1003C0001D3F83E292E06FE373E040E050E020E005
:1003D00032E00E941D3F0E94270F8EE292E061E70B
:1003E00071E140E050E020E031E00E941D3F8E9836
:1003F000969A869B1EC086E392E06CEE70E140E028
:1004000050E020E031E00E941D3F8FE392E06AE57A
:1004100070E140E050E020E830E00E941D3F80E5C0
:1004200092E062E970E140E050E020E830E00E94B4
:100430001D3F80E692E00E94E7590E94600780E03D
:1004400090E00F900F900F90CF91DF911F910F913F
:10045000FF90EF90DF90CF90089500D000D08FE60E
:1004600092E0ADB7BEB712969C938E93119783E935
:100470009DE014969C938E9313970E94CE59EDB7EE
:10048000FEB73A970FB6F894FEBF0FBEEDBF319698
:1004900086E892E0ADB7BEB712969C938E93119703
:1004A00080919C0D8283138280919D0D848315829F
:1004B00080919E0D8683178280919F0D8087118683
:1004C0008091A00D828713868091A10D8487158667
:1004D0000E94CE59EDB7FEB73E960FB6F894FEBF18
:1004E0000FBEEDBF6091A20D7091A30D8091A40D80
:1004F0009091A50D0E94F01E00D000D026EB32E0B6
:10050000ADB7BEB712963C932E93119714969C9359
:100510008E9313970E94CE590F900F900F900F90CB
:100520006091A60D7091A70D8091A80D9091A90DD5
:100530000E94F01E00D000D02BEC32E0EDB7FEB7E9
:1005400032832183948383830E94CE590F900F902E
:100550000F900F906091AA0D7091AB0D8091AC0D32
:100560009091AD0D0E94F01E00D000D020EE32E040
:10057000ADB7BEB712963C932E93119714969C93E9
:100580008E9313970E94CE590F900F900F900F905B
:100590000895FF920F931F93DF93CF93CDB7DEB7EC
:1005A00028970FB6F894DEBF0FBECDBFF82E498353
:1005B0005A836B837C830D831E832F833887882324
:1005C00019F487E09BE002C08BE89BE060E070E0FC
:1005D00040E00E948A3E892B09F042C0FF2069F06A
:1005E00085EF92E06BEF72E00E9467589093D90C10
:1005F0008093D80C0097A1F118C08FEF92E06BEFB9
:1006000072E00E9467589093D70C8093D60C0E949A
:100610002F5861E071E0AE014F5F5F4F0E9473574A
:100620008091D60C9091D70C0DC00E942F5861E09C
:1006300071E0AE014F5F5F4F0E9473578091D80CFD
:100640009091D90C0E942F586BE071E0AE014B5F86
:100650005F4F0E947357892B19F420E030E002C0ED
:100660002FEF3FEFC90128960FB6F894DEBF0FBEFB
:10067000CDBFCF91DF911F910F91FF900895DF9330
:10068000CF93CDB7DEB728970FB6F894DEBF0FBE75
:10069000CDBF8FE097E20E94DD1C3C0180E890E036
:1006A0000E94B15A2C015C014B9698878F83BDE163
:1006B0008B2E912C840C951CADE22A2E312C240C0F
:1006C000351CC301BE016D5F7F4FAE014F5F5F4FB1
:1006D000950100E810E0F8ECCF2ED12CE12CF12CA4
:1006E0000E942C1CFC01009761F3EA0DFB1D108297
:1006F000C50165E073E04CE150E00E94746300972F
:1007000009F0BCC000D0E2E2F3E0ADB7BEB712968C
:10071000FC93EE9311970E94CE590F900F90C50154
:100720006CE373E046E250E00E9474637C01C50113
:1007300063E673E043E350E00E947463DD240097B6
:1007400011F4DD24D394C50167E973E00E946D6361
:100750000CE91DE0D201F801819157968C935797CF
:1007600011968DE0E23AF807B9F78091A20D9091C9
:10077000A30DA091A40DB091A50DF40180839183E8
:10078000A283B3838091A60D9091A70DA091A80D8F
:10079000B091A90D84839583A683B7838091AA0D18
:1007A0009091AB0DA091AC0DB091AD0D808791876C
:1007B000A287B3870E94E2106B837C838D839E8324
:1007C000DD2031F4D4011D961C921E921C9703C0AB
:1007D000F40175876487EDE0F5E0D4011F96FC9382
:1007E000EE931E97EF2861F029813A81C3014FEF04
:1007F0005FEF6FEF7FEF8501EDE2EE2EF12C2FC062
:10080000F101D8018D918D018193BDE0023A1B0762
:10081000C1F70E94BB37F401668B778B808F918F75
:100820008FE699E2A0E0B0E0828F938FA48FB58F1E
:100830008EE49FE8A2E3B1E0868F978FA0A3B1A3D7
:10084000DD2081F08D8182A329813A81C3014FEFA0
:100850005FEF6FEF7FEF8501B0E4EB2EF12C0E948C
:10086000971C2FCF29813A81C3014FEF5FEF6FEFC4
:100870007FEF8501AFE3EA2EF12CF1CFC5016FEADE
:1008800073E04BE150E00E947463009709F07CC074
:100890000F811885FCE9EF2EFDE0FF2EF70120E027
:1008A00030E0D8019C918081981709F00ACF2F5F22
:1008B0003F4F0F5F1F4F31962630310591F700D023
:1008C0008BEC93E0EDB7FEB7928381830E94CE5903
:1008D000F80180819181A281B3818093AE0D9093C4
:1008E000AF0DA093B00DB093B10D8093A20D909376
:1008F000A30DA093A40DB093A50D84819581A6812D
:10090000B7818093A60D9093A70DA093A80DB093E7
:10091000A90D80859185A285B3858093AA0D9093BA
:10092000AB0DA093AC0DB093AD0D848595859C0166
:1009300040E050E02B833C834D835E83B801605FD1
:100940007F4F0F900F908089D7018D937D01319655
:10095000B2EAEB16BDE0FB06B1F7FB01628970E07D
:1009600080E090E0CB0177276627620F731F841F1A
:10097000951F6B837C838D839E830E94CF100E9482
:1009800063210E942D029DCEC50164EE73E04DE10E
:1009900050E00E947463009709F093CED201ECE915
:1009A000FDE05B969C915B978081981731F41196DE
:1009B00031968DE0E23AF807A1F70E94FF0D81CE53
:1009C000DF93CF9300D000D0CDB7DEB788EE93E0B1
:1009D000A0E0B0E089839A83AB83BC831092DB0CE8
:1009E000AA24A39426E0B22E95E7892E94E0992EAE
:1009F00089E6682E84E0782E0FE5402E04E0502E24
:100A000015E3212E14E0312E0E946F1B9093870D69
:100A10008093860D6CED75E00E94661BE091860D5B
:100A2000F091870D628D738D848D958D0E94F01EDF
:100A300000D000D000D0EDB7FEB7319622E034E010
:100A4000ADB7BEB712963C932E93119793838283D2
:100A50008CED95E0958384830E94CE598DB79EB727
:100A600006960FB6F8949EBF0FBE8DBF8091DF0C27
:100A7000882319F4A092DB0C02C01092DB0C809149
:100A8000860D9091870D66E070E1AE014F5F5F4F7C
:100A900024E030E00E94DA1A84E190E00E94B15A2A
:100AA0006C01CBC18091860D9091870DB60144E118
:100AB00050E00E94B8177C0118161906DCF08091EE
:100AC000860D9091870D0E944317009799F000D0F2
:100AD00000D0ADB7BEB712963C922E9211971496E5
:100AE0009C938E9313970E94CE590F900F900F9066
:100AF0000F90A8C18091DB0C882309F49EC1B6E059
:100B0000EB16F10409F095C1F6018081813111F5F0
:100B10008181823109F08DC18281833109F089C1DF
:100B20008381843109F085C18481853109F081C1D7
:100B30008581813109F07DC100D0ADB7BEB7129675
:100B40005C924E9211970E94CE59F601B0820F909E
:100B50000F9011C1803179F5D60111968C911197C2
:100B6000893009F066C112968C911297883009F08D
:100B700060C113968C911397873009F05AC114966F
:100B80001C911497163009F054C115968C91803140
:100B900009F04FC100D0EDB7FEB7728261820E94AA
:100BA000CE590F900F900E94D90D85E50E944F13EA
:100BB000D6011C93E0C08931A1F5F601818188310D
:100BC00009F037C18281873109F033C183818631D1
:100BD00009F02FC18481853109F02BC185818931CC
:100BE00009F027C100D0ADB7BEB712969C928E9285
:100BF00011970E94CE590F900F900E94760D0E947F
:100C0000F70D0E947F0E682F82E070E040E050E018
:100C100020E030E0EE24FF2487010E940415F60155
:100C200086C0853009F06CC0D60111968C91119761
:100C3000863009F0FEC012968C911297873009F029
:100C4000F8C013968C911397883009F0F2C014966F
:100C50008C911497893009F0ECC015968C918530F1
:100C600009F0E7C000D029E834E0EDB7FEB73283E1
:100C700021830E94CE590F900F908091DD0C882324
:100C800031F00E94E2107B018C0181E009C080916B
:100C9000E20C882371F00E94E2107B018C0188E055
:100CA00060E070E040E050E020E030E00E94041599
:100CB00019C08091E10C882331F00E94E2107B0181
:100CC0008C0185E0EDCF0E94E2107B018C0180E079
:100CD00060E070E040E050E020E030E00E94041569
:100CE0000E94F30DD601BC928091860D9091870DE4
:100CF000B60141E050E00E94E5180E94720D9DC0CF
:100D00008132B9F4F6018181823209F092C0828188
:100D1000833209F08EC08381843209F08AC08481D5
:100D2000853209F086C08581813209F082C0B082A7
:100D300022C0803351F5D60111968C9111978932DA
:100D400009F077C012968C911297883209F071C021
:100D500013968C911397873209F06BC014968C917F
:100D60001497863209F065C015968C9115978033DB
:100D700009F05FC0BC928091860D9091870DB601FD
:100D800041E050E00E94E51858C0803409F051C09D
:100D9000F6018181893309F04CC08281883309F0E2
:100DA00048C08381873309F044C08481863309F0C9
:100DB00040C085818034E9F500D0E2EAF4E0ADB7C7
:100DC000BEB71296FC93EE9311970E94CE5900E0A5
:100DD00010E00F900F908091860D9091870DB601D5
:100DE00044E150E00E94E5180F5F1F4F093D1105D7
:100DF00091F78091860D9091870DB60143E050E008
:100E00000E94E51800D000D0E6EBF4E0ADB7BEB725
:100E10001296FC93EE93119724EF30E114963C93D5
:100E20002E9313970E94CE590F900F900F900F9012
:100E300004C0C601B7010E9481138091DB0C882396
:100E400009F030CE1092DB0CC6010E94AB5A8091A3
:100E5000860D9091870D0E94CB1A87ED94E00E9439
:100E6000E7598091DF0C882329F58091DD0C8823D8
:100E700031F00E94E2107B018C0181E013C080916F
:100E8000E20C882331F00E94E2107B018C0188E0A3
:100E900009C08091E10C882369F00E94E2107B0177
:100EA0008C0185E060E070E040E050E020E030E060
:100EB0000E9404158091DE0C882309F4A5CDFFCF94
:100EC0002F923F924F925F926F927F928F929F925A
:100ED000AF92BF92CF92DF92EF92FF920F931F9348
:100EE000DF93CF93CDB7DEB72F970FB6F894DEBF61
:100EF0000FBECDBF1092DA0C72E0272E74E0372EB1
:100F00006EE9662E66E0762E5AE2452E55E0552EA5
:100F10000E946F1B4C0167E170E00E94661BD401C8
:100F20005A966D917D918D919C915D970E94F01ED6
:100F300000D000D000D0EDB7FEB73196ADB7BEB748
:100F400012963C922E9211979383828387E190E0D0
:100F5000958384830E94CE59EDB7FEB736960FB6BF
:100F6000F894FEBF0FBEEDBFC40169EF74E00E94AC
:100F7000C6579093810D8093800D81E08093DA0CA9
:100F800080E092E00E94B15A5C0136C52091800D4C
:100F90003091810DC50161E070E040E052E00E94B7
:100FA00037598C016C01181619060CF02AC5F50189
:100FB000E80FF91F10828091DA0C882309F41CC510
:100FC000C5016DEF74E00E946463009719F40E94FC
:100FD000710E62C4C50167E175E00E946463009709
:100FE00009F03EC00E947F0E082F10E01B870A8781
:100FF0000E94D60D90E08F778017910764F100D0A2
:1010000000D000D0EDB7FEB73196ADB7BEB712969F
:10101000BC92AE921197538242828A859B859583BA
:1010200084830E940B5A0F900F902FE235E0EDB7AA
:10103000FEB732832183B482A3820E94CE59D501A8
:101040000D900020E9F71197AA19BB090F900F9096
:101050000F900F9036C08BE495E00E94E7598DC445
:10106000C5016DE775E00E946463009799F50E94E1
:10107000D60D90E08F779B878A87009709F47DC40F
:1010800000D000D000D0EDB7FEB73196ADB7BEB7F7
:101090001296BC92AE9211975382428295838483BA
:1010A0000E940B5AD5010D900020E9F71197AA195B
:1010B000BB09EDB7FEB736960FB6F894FEBF0FBE6C
:1010C000EDBF2091800D3091810DC50161E070E090
:1010D000AD018AC4C50167E975E041E150E00E94B5
:1010E0007463009709F059C000D000D000D0EDB76C
:1010F000FEB73196ADB7BEB71296BC92AE921197BD
:101100002DEA35E033832283CE010A9695838483CA
:101110000E941C5A6DB77EB76A5F7F4F0FB6F89476
:101120007EBF0FBE6DBF8A850E94E90F882339F10B
:1011300000D000D0E2ECF5E0ADB7BEB71296FC935C
:10114000EE9311978A859B8514969C938E931397A3
:101150000E94CE590F900F900F900F902091800D0C
:101160003091810D8AE095E061E070E044E050E06C
:101170000E94A7598A859B850E94B81337C400D066
:10118000EEEDF5E0ADB7BEB71296FC93EE93119776
:101190000E94CE590F900F90F0C3C5016BEF75E020
:1011A0000E946463009719F40E94220F75C3C50161
:1011B0006EE076E00E946463009719F40E94880D47
:1011C00007C3C50169E176E00E946463009789F472
:1011D00081E08093DC0C8091DF0C882309F06CC0E7
:1011E0001092DB0C0E94D90D2091800D3091810D61
:1011F00055C0C5016EE276E00E946463009709F075
:101200006AC081E08093DC0C8091DF0C882309F0B8
:1012100053C01092DB0C0E94D90D85E50E944F133C
:1012200080E80E944F1300E010E002C00F5F1F4FE4
:101230000E944B13882321F00051174231F41DC046
:1012400027E20031120791F718C00E9457138A87CE
:101250001B8688E00E944F1300E010E002C00F5F81
:101260001F4F0E944B13882321F00051174251F465
:1012700004C067E20031160791F72091800D30918C
:10128000810D13C00E94571390E09B878A8720919D
:10129000800D3091810D8836910539F48AE095E012
:1012A00061E070E044E050E011C08FE095E061E063
:1012B00070E047E050E00AC02091800D3091810D30
:1012C00087E296E061E070E046E050E00E94A759B6
:1012D0001092DC0C8BC3C5016BE376E00E94646363
:1012E000009709F05EC00E94B41280E69AEEFC01FD
:1012F0003197F1F7FC013197F1F7FC013197F1F7E4
:10130000FC013197F1F7FC013197F1F7FC013197BE
:10131000F1F70197F1F7CE010196BE016E5F7F4FA5
:10132000AE014D5F5F4F0E94BD128981882319F481
:101330002BE230E002C02DE230E04A818B8188232D
:1013400019F485E090E002C080E090E0ADB7BEB750
:101350001A970FB6F894BEBF0FBEADBFEDB7FEB77C
:1013600031961296BC92AE9211976DE476E073833B
:1013700062833583248346831782918780870E9406
:101380000B5AD5010D900020E9F71197AA19BB0956
:101390008DB79EB70A960FB6F8949EBF0FBE8DBF4D
:1013A00090CEC50167E576E00E946463009791F4F2
:1013B0008091DF0C2091800D3091810D882339F0D0
:1013C00080E796E061E070E045E050E00DC386E71D
:1013D00096E004C2C5016BE776E00E946463009763
:1013E00019F581E08093DD0C8091E10C882351F4A4
:1013F0000E94F70D0E94FA0D80E00E94B70D80E078
:101400000E94B80D8091DF0C882309F0E1C10E9491
:101410007F0ED82E0E94E2107B018C0181E060E0FB
:1014200070E04D2D50E033C1C50167E876E04FE034
:1014300050E00E947463009709F045C0ADB7BEB795
:101440001A970FB6F894BEBF0FBEADBFEDB7FEB78B
:1014500031962FE030E0A20EB31E1296BC92AE92EF
:10146000119721EF3FEFA20EB31E73826282CE016D
:10147000089695838483CE01049697838683CE0154
:101480000696918780870E941C5A6DB77EB7665F6B
:101490007F4F0FB6F8947EBF0FBE6DBF688579850C
:1014A0004C815D812E813F8183E0EE24FF24870102
:1014B0000E94041586E060E00E94511481E261E020
:1014C0000E94B91385C1C50167EA76E046E050E0A5
:1014D0000E947463009709F03FC08DB79EB70A97CA
:1014E0000FB6F8949EBF0FBE8DBFEDB7FEB7319615
:1014F000A6E0B0E0AA0EBB1EADB7BEB71296BC9276
:10150000AE9211972AEF3FEFA20EB31E7382628252
:10151000CE01089695838483CE01049697838683B3
:10152000CE010696918780870E941C5A6DB77EB7C0
:10153000665F7F4F0FB6F8947EBF0FBE6DBF6885A4
:1015400079854C815D812E813F8183E0EE24FF24EB
:1015500087010E9404153CC1C50165EB76E00E943D
:101560006463009761F50E94E210ADB7BEB71897AB
:101570000FB6F894BEBF0FBEADBFEDB7FEB7319644
:101580001296BC92AE92119726EC36E033832283FA
:1015900064837583868397830E940B5AD5010D90CF
:1015A0000020E9F71197AA19BB096DB77EB7685FEC
:1015B0007F4F0FB6F8947EBF0FBE6DBF82CDC501C1
:1015C0006CEC76E00E946463009759F48091DF0C24
:1015D0002091800D3091810D882369F51092DB0CEC
:1015E000FBC0C5016DED76E00E946463009771F465
:1015F00080E00E94B70D80E00E94B80DC5010E94F6
:1016000043F884EE96E00E94E759F0C1C50169EF06
:1016100076E00E9464630097A9F48091DF0C20912A
:10162000800D3091810D882331F41092DB0C81E024
:101630008093DE0CD1C087E296E061E070E046E086
:1016400050E0D2C1C5016BE077E00E94646300976F
:10165000D9F58091DF0C882309F4BAC01092DF0C11
:101660008091DD0C882331F00E94E2107B018C0117
:1016700081E009C08091E20C882361F00E94E210B1
:101680007B018C0188E060E070E040E050E020E009
:1016900030E05FCF8091E10C882331F00E94E210AE
:1016A0007B018C0185E0EFCF0E94E2107B018C0171
:1016B00080E060E070E040E050E020E030E00E9438
:1016C00004150E94F30D84C0C5016BE177E00E9410
:1016D0006463009779F42091800D3091810D8AE048
:1016E00095E061E070E044E050E00E94A7590E945C
:1016F000FF0D7CC1C5016AE277E00E946463009738
:10170000D9F400D0E1E3F7E0ADB7BEB71296FC9391
:10171000EE9311970E94CE590F900F900E94760D74
:101720000E94F70D0E947F0E682F82E070E040E07B
:1017300050E020E030E00ACFC50164E577E00E9488
:101740006463009709F04FC000D0E0E6F7E0ADB762
:10175000BEB71296FC93EE9311970E94CE590F904C
:101760000F908091DD0C882331F00E94E2107B0104
:101770008C0181E009C08091E20C882371F00E9405
:10178000E2107B018C0188E060E070E040E050E016
:1017900020E030E00E94041519C08091E10C8823FC
:1017A00031F00E94E2107B018C0185E0EDCF0E94B8
:1017B000E2107B018C0180E060E070E040E050E0EE
:1017C00020E030E00E9404150E94F30D0E94720D8B
:1017D0002091800D3091810D8AE095E061E070E00C
:1017E00044E050E001C1C50168E877E04DE050E019
:1017F0000E947463009721F500D000D000D0EDB7AF
:10180000FEB73196ADB7BEB71296BC92AE921197A5
:101810002AE937E033832283CE010A9695838483B5
:101820000E941C5A6DB77EB76A5F7F4F0FB6F8945F
:101830007EBF0FBE6DBF8A859B850E94CA0D2CC0DE
:10184000C5016BEA77E04DE050E00E9474630097B9
:1018500059F500D000D000D0EDB7FEB73196ADB746
:10186000BEB71296BC92AE9211972DEB37E0338340
:101870002283CE010A96958384830E941C5A6DB7F9
:101880007EB76A5F7F4F0FB6F8947EBF0FBE6DBF05
:101890008A859B850E94BE0D2091800D3091810D1F
:1018A000882309F46EC098CFC5016EEC77E04BE059
:1018B00050E00E947463009709F06AC0C4016AE0B6
:1018C00075E044E050E00E94E51845EFE42E4FEF4C
:1018D000F42EE00EF11E8E01045F1F4FC40166E07E
:1018E00070E1A80124E030E00E94D71688E893E177
:1018F000A0E0B0E08C879D87AE87BF87C40166E01B
:1019000070E1A80124E030E00E94DA1A00EE11E054
:1019100015C0C7010B96A8014E195F092091800DD3
:101920003091810D8A0D9B1D61E070E00E94375956
:101930006C01181619063CF4E80EF91E70EEE71655
:1019400071E0F70631F71C861D861E861F86C401CE
:1019500066E070E1AE01445F5F4F24E030E00E943A
:10196000DA1AD7FC4EC080EEE81681E0F80629F4BA
:10197000C5010B960E9446102BCF2091800D30910F
:10198000810D8FE095E061E070E047E050E02CC011
:10199000C5016AED77E04AE050E00E947463009769
:1019A000C9F4C5010E944D1000E010E030EEE32EB6
:1019B00031E0F32EB501600F711FA701401B510BE1
:1019C000C4010E94E518080F191F91E0003E190795
:1019D00089F70CC02091800D3091810D85EE97E044
:1019E00061E070E04FE050E00E94A7598091800DC7
:1019F0009091810D0E941D588091DA0C882309F086
:101A0000C5CA1092DA0CC5010E94AB5A8091800DB4
:101A10009091810D0E948857C4010E94CB1A85EFD6
:101A200097E00E94E75974CAACE9BDE0E6E7F8E048
:101A300086E001900D928150E1F7A3E9BDE0E6E177
:101A4000F8E089E001900D928150E1F78BE198E098
:101A50000E949E1E6093A20D7093A30D8093A40D0F
:101A60009093A50D8BE198E00E949E1E6093AE0DB1
:101A70007093AF0D8093B00D9093B10D8AE298E012
:101A80000E949E1E6093A60D7093A70D8093A80DD3
:101A90009093A90D88E398E00E949E1E6093AA0D82
:101AA0007093AB0D8093AC0D9093AD0D85E498E0F1
:101AB0000E94E7590E946321089586E198E00E9400
:101AC0007721892B11F00E94140D089514981C9A07
:101AD0008AB782608ABF8AB78E7F8ABF89B78061E2
:101AE00089BF089589B7806189BF089589B78F7EBE
:101AF00089BF08958C98949A8998919A8AB788603A
:101B00008ABF8AB78B7F8ABF89B7826089BF0895F1
:101B100089B78D7F89BF899A919880E090E020E60F
:101B20003AEEF9013197F1F7019641E083339407DA
:101B3000C1F7919A80E090E020E63AEEF901319702
:101B4000F1F701968D339105C9F7919880E090E007
:101B500020E63AEEF9013197F1F701968F319105C0
:101B6000C9F7919A899889B7826089BF08950895C5
:101B70000895BE9ABF9AC698C7980895009719F419
:101B8000C69881E00895019711F080E00895C69A03
:101B900081E00895009719F4C79881E008950197AE
:101BA00011F080E00895C79A81E008958091B2080D
:101BB0000895959A86E69EE00197F1F7959820E0C2
:101BC00040E553ECCA010197F1F72F5F2A34D1F7B2
:101BD00008958FE18DBD82E08CBD84E08EBD87B716
:101BE000846087BF089581E08093E00C089510928F
:101BF000E00C089587B78B7F87BF1EBC089528E04F
:101C000088E190E00FB6F894A89581BD0FBE21BD84
:101C1000FFCF1F920F920FB60F920BB60F921124A7
:101C20008F939F93EF93FF93E091E90CF091EA0C6F
:101C3000309739F48FEF9FEF9093EA0C8093E90C83
:101C400009C08FEFEF3FF80729F084819581019655
:101C50009583848388B7806188BFFF91EF919F91BE
:101C60008F910F900BBE0F900FBE0F901F90189585
:101C70001F920F920FB60F920BB60F9211248F93F3
:101C80009F93EF93FF93E091EB0CF091EC0C309766
:101C900039F48FEF9FEF9093EC0C8093EB0C09C01D
:101CA0008FEFEF3FF80729F08481958101969583A6
:101CB000848388B7826088BF89B78D7F89BFFF9191
:101CC000EF919F918F910F900BBE0F900FBE0F90D1
:101CD0001F9018950E943F138898909A95988D9A16
:101CE00008952091D80C3091D90C8CE798E061E0F0
:101CF00070E047E050E00E94A75981E008950F93FB
:101D00001F93DF93CF93CDB7DEB72C970FB6F89420
:101D1000DEBF0FBECDBF8091B208813009F487C00D
:101D2000DE011396E9E8F8E086E001900D9281501B
:101D3000E1F719861A861B861C860E942B3B9B01A5
:101D4000AC018091E50C9091E60CA091E70CB0916C
:101D5000E80C281B390B4A0B5B0B20938A0D309340
:101D60008B0D40938C0D50938D0D2C3B82E03807EA
:101D700080E0480780E0580750F46CEB72E080E0A8
:101D800090E0621B730B840B950B0E942A3C8E0122
:101D90000D5F1F4FF80101900020E9F73197E01B1C
:101DA000F10B2091D80C3091D90CC80161E070E0A2
:101DB000AF010E94A75980E69AEEFC013197F1F736
:101DC0000197F1F72091D80C3091D90CC80161E04E
:101DD00070E04AE050E00E943759FC01009731F171
:101DE000E00FF11F108200D000D000D0EDB7FEB799
:101DF0003196ADB7BEB712961C930E93119784E837
:101E000098E093838283CE010196958384830E9418
:101E10001C5A2DB73EB72A5F3F4F0FB6F8943EBF0E
:101E20000FBE2DBF892B11F0898101C08FEF2C9639
:101E30000FB6F894DEBF0FBECDBFCF91DF911F91DB
:101E40000F9108950E947F0E811181E00895EF9215
:101E5000FF920F931F93DF93CF93CDB7DEB76797B2
:101E60000FB6F894DEBF0FBECDBFDE011396E3E9D7
:101E7000F8E086E001900D928150E1F7DE011996BD
:101E8000E9E9F8E088E001900D928150E1F7FE0168
:101E9000719687E0DF011D928A95E9F768EE73E09D
:101EA00080E090E00E942A3C2091D80C3091D90C1F
:101EB0008CE798E061E070E047E050E00E94A759AD
:101EC00064EC79E080E090E00E942A3CDE01139609
:101ED000FD0101900020E9F73197EA1BFB0B2091EF
:101EE000D80C3091D90CCD0161E070E0AF010E94B7
:101EF000A75900E61AEEC8010197F1F7C80101974A
:101F0000F1F789E0E82EF12CEC0EFD1EF7010190AF
:101F10000020E9F73197EE19FF092091D80C309194
:101F2000D90CC70161E070E0AF010E94A759C80158
:101F30000197F1F7C8010197F1F72091D80C309182
:101F4000D90CC70161E070E04FE050E00E943759C2
:101F50008C01009789F1E80EF91EF701108200D07C
:101F600000D000D0EDB7FEB73196CE010F96ADB7D9
:101F7000BEB712969C938E93119784E898E0938352
:101F80008283CE010196958384830E941C5A298105
:101F90002093B2080C0F1D1FEDB7FEB736960FB693
:101FA000F894FEBF0FBEEDBFD80116968C91823615
:101FB00019F420682093B20867960FB6F894DEBF34
:101FC0000FBECDBFCF91DF911F910F91FF90EF908A
:101FD00008950F931F93DF93CF93CDB7DEB72A9762
:101FE0000FB6F894DEBF0FBECDBF282F30E0809132
:101FF000B20890E08F778217930714F480E03BC01B
:1020000000D000D000D0EDB7FEB731968E010F5F43
:102010001F4FADB7BEB712961C930E93119788EA67
:1020200098E093838283358324830E940B5AF801BE
:1020300001900020E9F73197E01BF10B8DB79EB7B7
:1020400006960FB6F8949EBF0FBE8DBF2091D80C98
:102050003091D90CC80161E070E0AF010E94A7592E
:102060000E942B3B6093E50C7093E60C8093E70C89
:102070009093E80C81E02A960FB6F894DEBF0FBE6D
:10208000CDBFCF91DF911F910F91089569E071E06D
:1020900040EE51E00E94B663089569E071E040EEC1
:1020A00051E00E9498630895682F85E091E00E94B6
:1020B000C063089560E375E780E090E00E942A3CE9
:1020C000DD24D39484991DC0D092E30C1092E00CCF
:1020D00087B78B7F87BF1EBC89B78F7E89BF8AE099
:1020E00060E070E040E050E020E030E0EE24FF24CB
:1020F00087010E94041585E091E060E00E94C063C2
:102100000EC08091E30C882351F028E088E190E034
:102110000FB6F894A89581BD0FBE21BDFFCF0E94D8
:102120001E3AD0CF68EB7BE080E090E00E942A3C32
:102130008BEE9CE044E650E060E070E00E945D3E83
:10214000892B51F58091E30C882351F028E088E138
:1021500090E00FB6F894A89581BD0FBE21BDFFCFCA
:1021600085E091E00E94A863813089F085E091E0EC
:1021700061E00E94C0631092E00C87B78B7F87BF3D
:102180001EBC89B78F7E89BF02C00E941E3A819B08
:10219000FCCF89B7826089BF0E941E3AC9CFEF92F7
:1021A000FF920F931F93E82E86E091E00E94CD638B
:1021B00088E091E06E2D0E94C0631F910F91FF9007
:1021C000EF90089586E091E00E94B0639B01AC011E
:1021D0005070B901CA010895DF93CF930F92CDB724
:1021E000DEB79FEAA92E98E0B92E6E010894C11CB3
:1021F000D11C9924939400D000D0EDB7FEB7B282E1
:10220000A182D482C3820E9481590F900F900F90B7
:102210000F908981833149F58DE090E00E94E0596B
:102220009092E10C9091DD0C992331F41092E00C26
:1022300087B78B7F87BF1EBC8091DF0C8823A9F4F2
:10224000992331F00E94E2107B018C0181E005C0EE
:102250000E94E2107B018C0185E060E070E040E0CC
:1022600050E020E030E00E9404158981843109F5B6
:102270008DE090E00E94E0599092E20C8091DD0C9C
:10228000882331F41092E00C87B78B7F87BF1EBC88
:102290008091DF0C882369F40E94E2107B018C019D
:1022A00088E060E070E040E050E020E030E00E9434
:1022B0000415898187FF12C08DE090E00E94E059EB
:1022C000698170E06F77707089E040E050E020E055
:1022D00030E0EE24FF2487010E9404150E941E3A7C
:1022E0008ACFC1E7D1E0CC24C39489EE9CE040E0E2
:1022F00050E060E070E00E945D3E8091DF0C88233A
:1023000019F480E090E06CC080E090E004C0019699
:10231000FE013197F1F70C9905C027E28031920751
:10232000B1F704C027E280319207B9F51092DF0CB3
:102330008091DD0C882349F00E947F0ED82E0E94E8
:10234000E2107B018C0181E061C08091E20C882366
:1023500031F00E94E2107B018C0188E009C080917D
:10236000E10C882351F00E94E2107B018C0185E092
:1023700060E070E040E050E04DC00E94E2107B0160
:102380008C0180E060E070E040E050E020E030E070
:102390000E940415C092E00C41C0C39708F43EC0EF
:1023A0000E947F0E4091B20890E0242F30E02F77FA
:1023B0008217930734F047FF02C080E005C081E038
:1023C00003C00E947F0E8F5F0E94E90F0E947F0E64
:1023D000D82E0E94E21017C00196FE013197F1F746
:1023E0000C9905C027E280319207B1F703C08051F4
:1023F0009742A1F41092E00CC092DF0C0E947F0E75
:10240000D82E0E94E2107B018C0184E060E070E035
:102410004D2D50E020E030E00E9404150C9BFECFD3
:1024200064CF1F920F920FB60F920BB60F9211242A
:10243000EF92FF920F931F932F933F934F935F93CE
:102440006F937F938F939F93AF93BF93EF93FF937C
:102450008FE18DBD82E08CBD8DE08093890D8EE093
:102460008093880D8091E00C882369F00E94E2102F
:102470007B018C0180E060E070E040E050E020E013
:1024800030E00E940415FF91EF91BF91AF919F91B1
:102490008F917F916F915F914F913F912F911F91FC
:1024A0000F91FF90EF900F900BBE0F900FBE0F900B
:1024B0001F9018958F9A979A8FE08A95F1F78F9AC7
:1024C000979881EF97E00197F1F78F98979A8CE2B0
:1024D00091E00197F1F780B3E5E0F6E03197F1F78D
:1024E000879902C080E008958095881F8827881FFB
:1024F000089520E030E0EAE0482F50E067E271E024
:102500008F9A97988E2F8A95F1F7CA01022E02C0F2
:10251000959587950A94E2F780FD979ACB010197EC
:10252000F1F7979A8E2F8A95F1F72F5F3F4F28305A
:10253000310531F7089520E080E03FE049EB50E0BD
:102540008F9A9798932F9A95F1F78F98979A932F40
:102550009A95F1F7869587998068FA013197F1F796
:102560002F5F283069F708950E945A128CEC0E9460
:10257000791284E40E94791208958F929F92AF920B
:10258000BF92CF92DF92EF92FF920F931F93DF9350
:10259000CF93CDB7DEB729970FB6F894DEBF0FBE45
:1025A000CDBF6C014B015A010E945A128CEC0E9463
:1025B00079128EEB0E9479128E010F5F1F4F7AE025
:1025C000E72EF12CEC0EFD1E0E949B12F801819368
:1025D0008F01EE15FF05C1F78A81482F50E0CA012F
:1025E000887F9070883F910521F481E0F601808317
:1025F00002C0F6011082298130E047705070942F9C
:102600008827820F931F34E0959587953A95E1F7D7
:10261000F401808323FF04C081E0F501808302C0C0
:10262000F501108229960FB6F894DEBF0FBECDBF1C
:10263000CF91DF911F910F91FF90EF90DF90CF909E
:10264000BF90AF909F908F9008950F931F938C0130
:102650000E945A128CEC0E9479128EE40E94791228
:10266000F80180810E947912F80181810E9479121B
:10267000F80182810E9479121F910F910895BB98F1
:10268000BA9AB99AB89AC09A81E58DB981E08EB9A3
:102690008EB18FB1089580B3809581700895C098F0
:1026A00000008FB9779BFECF0000C09A089585E5A2
:1026B0000E944F138FB10895AC01809B03C020E0AE
:1026C00030E01DC020E030E095E56AE470E0C0989D
:1026D000FA01E20FF31F0BC09FB9779BFECF8FB1BA
:1026E00081932F5F3F4F82E02030380740F4809B7A
:1026F000F3CFC09AFB013197F1F7809BE8CFC90176
:102700000895AC016115710589F0C09820E030E0B2
:1027100009C0FA01E20FF31F80818FB9779BFECFCA
:102720002F5F3F4F26173707A0F3C09A089580E028
:1027300092E00E94B15A8C018091DC0C8823A9F4AC
:10274000C8010E945C13AC01009779F08091DB0C0A
:10275000882359F08091DF0C882339F48091860D0D
:102760009091870DB8010E94E5180E941E3AE4CFAF
:102770000895982F613021F480916200816003C038
:10278000809162008E7F80936200809162008F7ED4
:1027900080936200000080916200826080936200FA
:1027A00080916200877F80936200809162008F7BBE
:1027B00080936200809162008B7F809362008091A1
:1027C00062008F7D8093620097FF05C08091620058
:1027D000886080936200292F96FF05C08091620077
:1027E00080648093620025FF05C080916200846050
:1027F0008093620024FF05C0809162008062809314
:10280000620081E090E00197F1F7809162008D7F96
:102810008093620083E990E00197F1F78091620074
:1028200082608093620080916200877F8093620063
:10283000809162008F7B80936200809162008B7F29
:1028400080936200809162008F7D8093620023FFFD
:1028500005C08091620088608093620022FF05C0FD
:102860008091620080648093620021FF05C08091A6
:10287000620084608093620020FF05C08091620046
:1028800080628093620081E090E00197F1F780918F
:1028900062008D7F8093620083E990E00197F1F7F9
:1028A00008958F70806870E06170707096E0660FB8
:1028B000771F9A95E1F7862B60E00E94B91308957F
:1028C00081E060E00E94B9130895CF93DF9380E424
:1028D00060E00E94B913CEEFD8E0899161E00E94D8
:1028E000B91389E0CE33D807C1F782E08093ED0CAD
:1028F000DF91CF910895CF93DF9380E460E00E9451
:10290000B913CEEBD8E0899161E00E94B91388E059
:10291000CE3FD807C1F781E08093ED0CDF91CF91D6
:102920000895E1E6F0E080818F678083E2E6F0E0E1
:1029300080818E7F808380818F7E80838EEF97ED74
:102940000197F1F78081826080838081806280833B
:1029500080818460808380818F7B80838081877F7A
:10296000808321E030E0C9010197F1F780818D7FFC
:1029700080838AE09BE30197F1F780818260808306
:10298000C9010197F1F780818D7F808381E791E014
:102990000197F1F7808182608083C9010197F1F787
:1029A00080818D7F808343E950E0CA010197F1F770
:1029B00080818260808380818F7D8083C9010197BF
:1029C000F1F780818D7F8083CA010197F1F788E25A
:1029D00060E00E94B9138CE060E00E94B91386E0C9
:1029E00060E00E94B9130895CF93DF93EA010E943B
:1029F000511404C061E00E94B91321968881882394
:102A0000C9F7DF91CF9108952F923F924F925F9235
:102A10006F927F928F929F92AF92BF92DF92EF92CE
:102A2000FF920F931F93DF93CF93CDB7DEB72B9712
:102A30000FB6F894DEBF0FBECDBFD82E2B011A0102
:102A40003B872A873701480185509091ED0C8430EF
:102A500028F4923039F00E94651404C0913011F0CE
:102A60000E947B140D2D10E035E0000F111F3A95E8
:102A7000E1F7025C164F80E060E00E9451145801BB
:102A8000FF24D5018D915D0161E00E94B913F3949B
:102A9000B0E1FB16B1F720E1E22EF12CE00EF11EC1
:102AA00080E061E00E945114F801808961E00E9499
:102AB000B9130F5F1F4FE016F106B1F7F4E0DF1610
:102AC00009F466C0FD1578F081E0D81609F4BFC09E
:102AD000D81608F4BCC092E0D916C9F0A3E0DA1603
:102AE00009F0E4C025C0B8E0DB1609F4B0C0BD159C
:102AF00028F0E5E0DE1609F0D9C0A9C0F9E0DF163C
:102B000009F486C08BE0D81609F0D0C0A0C0C2017D
:102B10008E010F5F1F4FB8014AE050E00E948263B0
:102B2000F80101900020E9F7802F8E1B835F6EC0B3
:102B30008E010F5F1F4FC201B8014AE050E00E94B2
:102B40008263F801D8010D900020E9F7EA1B8E2F6F
:102B5000805F60E0A8010E94F414C101B8014AE05E
:102B600050E00E948263F801D8010D900020E9F73F
:102B7000EA1B8E2F875F61E0A8010E94F4148A850A
:102B80009B85B8014AE050E00E94826389E03EC024
:102B90008E010F5F1F4FADB7BEB718970FB6F894F1
:102BA000BEBF0FBEADBFEDB7FEB7319612961C93F8
:102BB0000E93119783EB98E09383828364827582EE
:102BC000868297820E940B5AF801D8010D9000204E
:102BD000E9F78DB79EB708960FB6F8949EBF0FBE63
:102BE0008DBFEA1B8E2F8F5E60E0A8010E94F41457
:102BF000C101B8014AE050E00E948263F801D801A7
:102C00000D900020E9F7EA1B8E2F805F61E04BC03A
:102C100000D000D000D0EDB7FEB731968E010F5F27
:102C20001F4FADB7BEB712961C930E93119789EB49
:102C300098E093838283558244820E940B5AF80164
:102C400001900020E9F78DB79EB7069623C0ADB777
:102C5000BEB718970FB6F894BEBF0FBEADBFEDB7A5
:102C6000FEB731968E010F5F1F4F12961C930E9385
:102C7000119783EB98E093838283648275828682C6
:102C800097820E940B5AF80101900020E9F78DB756
:102C90009EB708960FB6F8949EBF0FBE8DBF802FCB
:102CA0008E1B8F5E60E0A8010E94F4142B960FB675
:102CB000F894DEBF0FBECDBFCF91DF911F910F9172
:102CC000FF90EF90DF90BF90AF909F908F907F909C
:102CD0006F905F904F903F902F9008950E94073D16
:102CE00083EC9AE06BEB70E040E050E020E033E0F2
:102CF0000E941D3F8EEF0E94A2390E941E3A0E9440
:102D00006A392091C80A2F3FC1F395B785B7837EF2
:102D1000822B85BF85B7806285BF889585B78F7DFB
:102D200085BF85B79C71837E982B95BFE6CF0F93A7
:102D30001F93CF93DF938C01C091EE0CD091EF0CD9
:102D4000FE011BC0808D918D8017910799F4828DB3
:102D5000938DA48DB58D82179307A407B50751F401
:102D6000868D978D8617970729F48389882311F01C
:102D70009F0117C00190F081E02D309719F70DC029
:102D80008B89813039F4888D998D8017910711F4E2
:102D90009E0107C00990D881C02D209789F720E0B7
:102DA00030E0C901DF91CF911F910F910895CF932A
:102DB000DF93FC01EA01009709F45FC080E1623013
:102DC0007807F1F080E16330780744F462307105F0
:102DD00071F06150704109F04AC037C080E1653040
:102DE0007807C9F06650704109F041C01DC0411517
:102DF000510589F12230310571F5ED5AFF4F08C0B8
:102E00004115510541F12230310529F5E85BFF4FAD
:102E10008081918127C041155105E9F024303105A9
:102E2000D1F4E559FF4F08C041155105A1F02430F8
:102E3000310589F4E959FF4F80819181A281B381E5
:102E400088839983AA83BB830FC04115510519F06C
:102E50002230310529F0EF59FF4F86E190E00BC099
:102E6000818992899983888320E030E008C0EF59F6
:102E7000FF4F8AE290E0918380832FEF3FEFC901FB
:102E8000DF91CF910895FC01009719F426E230E01C
:102E900004C0EF59FF4F20813181C9010895CF93BC
:102EA000DF93DC01EA016A30710561F06A30710577
:102EB00034F06B307105B1F06C30710519F02FEF03
:102EC0003FEF1CC0FD01E65BFF4FAA5BBF4F8D913A
:102ED0009C9120813181821B930BAA2797FDA0959D
:102EE000BA2F06C01D968D919C911E97A0E0B0E070
:102EF00088839983AA83BB8320E030E0C901DF91F6
:102F0000CF9108950F931F93CF93DF93EC018C0122
:102F1000035B1F4F08C080819181D8018D939C93E2
:102F2000CF010E94FD53D801ED91FC91309799F7A4
:102F300007C08081918199AF88AFCF010E94FD5376
:102F4000E8ADF9AD3097A9F708C0808191819983E8
:102F50008883CF010E94FD5302C0CF5ADF4FE88122
:102F6000F981309791F7DF91CF911F910F910895DB
:102F70002F923F924F925F926F927F928F929F9289
:102F8000AF92BF92CF92DF92EF92FF920F931F9377
:102F9000DF93CF9300D000D000D0CDB7DEB79E83B3
:102FA0008D837A8369834A010E941E3A2D813E8176
:102FB000232B89F1ED81FE818389843019F0838987
:102FC000853019F529813A81232B09F4DFC081145A
:102FD000910409F4DDC04FE4A42EB12C6D817E81F3
:102FE000A60EB71E36E4C32ED12CC60ED71E2AE479
:102FF000E22EF12CE60EF71E8B0109591F4F1AC065
:10300000ED81FE818389843051F0EF59FF4F89E3D0
:1030100090E09183808388248A94982CB9C0F80129
:103020004081518162817381C5010E94F93D892BE4
:1030300009F0ACC0F60180819181F70120813181D6
:1030400082179307E9F2821B930B8815990524F4E4
:10305000009709F49BC04C017901662477242D81E7
:103060003E81235B3F4F3C832B8396E4292E312CFA
:103070006D817E81260E371E8CE4482E512C460E23
:10308000571E3CC0EB81FC81A080B180F501C18856
:10309000D288CE18DF08840106191709C016D10698
:1030A00008F4860149815A81460D571DF50127858F
:1030B00030892E0D3F1DCA01B901A8010E94546339
:1030C000E00EF11E0C151D05B8F0F501808191810F
:1030D000EB81FC8191838083F101808191818E1944
:1030E0009F0991838083C5010E94FD53F201808175
:1030F00081508083EE24FF24600E711E68147904D1
:1031000008F22D813E81265B3F4FF901F182E0827A
:10311000EA54F040FE83ED8383898430C9F5EC5B8B
:10312000FF4F40815181349620813181E854F04035
:10313000FE83ED83C401840F951F281739070CF413
:10314000C9012D813E812D5A3F4FF90120813181E6
:10315000E355F040FE83ED832417350778F02817F8
:10316000390760F4EC5BFF4F91838083E454F040B7
:10317000FE83ED83CF010E9440250AC02D813E8150
:103180002C5B3F4FF9019183808302C088249924EE
:10319000C40126960FB6F894DEBF0FBECDBFCF9107
:1031A000DF911F910F91FF90EF90DF90CF90BF9034
:1031B000AF909F908F907F906F905F904F903F90D7
:1031C0002F9008950E94B81708958F929F92AF9202
:1031D000BF92CF92DF92EF92FF920F931F93CF9304
:1031E000DF93EC014B018A010E941E3A209709F4FB
:1031F00058C08114910409F457C00115110509F450
:1032000055C0CD5ADF4F88819981C355D040801772
:10321000910708F48C01FAE3AF2EB12CAC0EBD1E61
:10322000E3E5CE2ED12CCC0EDD1E7BE6E72EF12C75
:10323000EC0EFD1E8B89843039F0CF59DF4F89E3C6
:1032400090E0998388832DC049A55AA58DA19EA1A0
:10325000481B590B9A013695279536952795F60107
:10326000808191812817390738F48DA99EA9841B84
:10327000950B8017910758F4F701408151816281C5
:103280007381C5010E94F93D892BA1F20DC088A16F
:10329000806188A3CE01B401A8010E947122892B0C
:1032A00029F00FEF1FEF02C000E010E0C801DF912E
:1032B000CF911F910F91FF90EF90DF90CF90BF9033
:1032C000AF909F908F900895CF92DF92EF92FF92F0
:1032D0000F931F93CF93DF936C017B018A01C0E0B2
:1032E000D0E011C0B7016C0F7D1FA8014C1B5D0B16
:1032F000C6010E94E518181619061CF0CFEFDFEF83
:1033000005C0C80FD91FC017D10764F3CE01DF91E4
:10331000CF911F910F91FF90EF90DF90CF90089584
:10332000AF92BF92CF92DF92EF92FF920F931F93D3
:10333000CF93DF938C01E72F6A01009709F4E6C071
:10334000DC0153968C91843041F00F591F4F89E373
:1033500090E0F80191838083D9C0D8011D964D91EA
:103360005C911E97C114D104C9F44115510509F4AB
:10337000D0C01F966D917C915097C8010E9464192E
:10338000F8012785308997FF02C0C90176C0C901BD
:103390000E94AB5AF80116861586BBC0C62FD72FE0
:1033A0005E01D80151966D917C915297411551055E
:1033B00069F5C616D70610F4E60113C0C6010E94CF
:1033C000B461EC017601E81AF90AC801B501A70158
:1033D0000E94641997FD9AC0209709F49AC0AE0C18
:1033E000BF1CF801818992890E94B15AD801509678
:1033F0009C938E931F97009709F488C0B501AE0186
:103400000E945463F801C587D68783C0C601840F24
:10341000951FD8011F962D913C91509786179707BD
:1034200080F4240F351FC9016C2F7E2FA6010E9446
:103430005463F801858596858C0D9D1D968785873B
:1034400068C07B01E41AF50A240F351FC9016C2FEF
:103450007E2FA7010E945463D8011F966D917C9125
:10346000509751964D915C915297C8010E946419F2
:1034700097FF0BC0F801878590890E94AB5AD8014D
:103480001E961C921E921D9741C05E01AE0CBF1C81
:1034900096012E193F09F8016189728926173707AD
:1034A000E0F0C9010E94B461EC017901E81AF90A5F
:1034B000C801B501A7010E94641997FF0BC0D8018C
:1034C0001F968D919C9150970E94AB5AF8011686D9
:1034D00015861CC0AE0CBF1C01C0E901209759F035
:1034E000D8011F968C911F9750969C91B501AE0103
:1034F0000E94546305C0F801878590890E94AB5AE9
:10350000D8011E96DC93CE931D9703C0CC24CA9499
:10351000DC2CC601DF91CF911F910F91FF90EF90AE
:10352000DF90CF90BF90AF900895CF92DF92EF924F
:10353000FF920F931F93CF93DF936C017B018A015E
:103540004115510519F4C0E0D0E00CC088EB9DE0B6
:10355000BA010E94C037EC01009721F0B701A80121
:103560000E942163C601BE01A8010E949019182F74
:10357000092F209729F088EB9DE0BE010E941838A2
:10358000812F902FDF91CF911F910F91FF90EF909E
:10359000DF90CF9008950F931F938C0160E070E04F
:1035A00040E050E00E949019C8010E94942E1F91A3
:1035B0000F9108950F931F93CF93DF93EC018A012E
:1035C000009709F47BC080E16230780759F1E0E1AF
:1035D00063307E0744F46230710571F061507041D0
:1035E00009F066C04BC080E16530780761F1665034
:1035F000704109F05DC030C04115510509F444C067
:103600002230310509F040C08B89882329F0CF5939
:10361000DF4F88E390E050C0CD5ADF4FFA01808140
:1036200091810EC04115510579F12230310561F5C6
:10363000FA0180819181C85BDF4F99838883249749
:103640009983888332C041155105F1F0243031054A
:10365000D9F4C559DF4F08C041155105A9F02430F0
:10366000310591F4C959DF4FF80180819181A28120
:10367000B38188839983AA83BB8317C04115510501
:1036800019F02230310529F0CF59DF4F86E190E063
:1036900013C0CE0160E070E040E050E00E9490195D
:1036A000F801808191819A8B898B20E030E008C0FD
:1036B000CF59DF4F8AE290E0998388832FEF3FEF65
:1036C000C901DF91CF911F910F910895FC01062E42
:1036D000672F702D718F608F0E94E22C08950F93D9
:1036E0001F93CF93DF938091F20C882381F486E0BF
:1036F00067EA71E20E94771D892B09F05DC00E9484
:10370000C224892B09F058C081E08093F20C81E03B
:1037100090E063E770E00E948F5AEC018C01009703
:1037200009F44CC01B8A84E08C8382EE98E19E836E
:103730008D8380E999E198878F8385E99AE19A875B
:1037400089878FE497E19C878B870E94CD3A69A394
:103750007AA38BA39CA36DA37EA38FA398A769A72D
:103760007AA78BA79CA70C5B1F4F80E99CE0F80110
:10377000918380830C5F1F4FF80191838083055FE5
:103780001F4F28E132E0F801318320830A5F1F4F89
:1037900088EE93E0F8019183808309551040809171
:1037A000EE0C9091EF0C998388833A8B298B1093C0
:1037B000EF0C0093EE0C02C000E010E0C801DF91B6
:1037C000CF911F910F910895CF93DF93EC01E0917A
:1037D000EE0CF091EF0CAEEEBCE014C0EC17FD0760
:1037E00069F48881998111969C938E93CE010E94F1
:1037F00082178D859E85892B71F007C0DF010190AE
:10380000F081E02D309751F70EC08F8598890E9486
:10381000AB5A1E861D8683E7FE0111928A95E9F751
:10382000CE010E94AB5ADF91CF9108959C01E091A7
:103830008E0DF0918F0D0AC08281938182179307BC
:1038400011F49F0107C00190F081E02D3097A1F79E
:1038500020E030E0C90108954F925F926F927F920D
:103860008F929F92AF92BF92CF92DF92EF92FF9290
:103870000F931F93CF93DF935C014B013A01522EBC
:10388000432EFC0184819581892B31F4C501069674
:10389000B701A6010E94F93DF501C481D5812097A9
:1038A00019F400E010E031C088819981F501958319
:1038B0008483EF81F88584859585A685B785F40195
:1038C00080839183A283B383EB85FC858081918182
:1038D000082E892F902DF3019183808349895A897D
:1038E000401751070CF48A01F50180859185841BEE
:1038F000950B918780876F857889852D942DA801F8
:103900000E945463CE010E94FD53C801DF91CF9104
:103910001F910F91FF90EF90DF90CF90BF90AF90ED
:103920009F908F907F906F905F904F9008956F92CF
:103930007F928F929F92AF92BF92CF92DF92EF923F
:10394000FF920F931F93CF93DF934C015A016B01AA
:10395000390180E090E060E8A7010E94E255EC01A7
:10396000009741F48CE090E0F401958784870FEF95
:103970001FEF13C08F859889B801A7010E94546377
:10398000C401B601A50193018E010E94862F8C010E
:10399000009719F4CE010E94FD53C801DF91CF9129
:1039A0001F910F91FF90EF90DF90CF90BF90AF905D
:1039B0009F908F907F906F900895CF93DF93EC014D
:1039C0008091F50C882369F481E16CEF7EE20E941E
:1039D000771D892B19F020E030E052C081E0809300
:1039E000F50C2097A1F50E942B3B9B014091F30C15
:1039F0005091F40C4115510551F02E70307021603A
:103A0000240F351F3093F40C2093F30C04C07093F3
:103A1000F40C6093F30CC091F30CD091F40CD06CC7
:103A2000D093F40CC093F30C9E01022E232F302D63
:103A3000E0918E0DF0918F0D08C0828193818217E5
:103A4000930789F20190F081E02D3097B1F781E082
:103A500090E064E170E00E948F5AFC019C010097A5
:103A600079F00C2ECD2FD02DD383C28380918E0D73
:103A700090918F0D91838083F0938F0DE0938E0D45
:103A8000C901DF91CF910895DF92EF92FF920F93DA
:103A90001F93CF93DF937C018B01DB011796ED9190
:103AA000FC911897D184C091F60CD091F70C12C0FC
:103AB0008A81D81661F4EB81FC81309741F0C7010F
:103AC000B8010995892B19F420E030E007C009906E
:103AD000D881C02D209761F72FEF3FEFC901DF910B
:103AE000CF911F910F91FF90EF90DF9008951F935A
:103AF000CF93DF93182FEB01A091F60CB091F70C48
:103B000008C012968C9112978117F9F00D90BC9114
:103B1000A02D1097B1F724C012838091F60C9091DC
:103B2000F70C009759F4B093F70CA093F60C84E4CB
:103B30009DE19093B70D8093B60D07C011969C93AD
:103B40008E93B093F70CA093F60C1496DC93CE935F
:103B5000139720E030E0C901DF91CF911F910895C4
:103B600081E090E065E070E00E948F5AFC01DC018A
:103B7000009791F62FEF3FEFEECFDF92EF92FF929B
:103B80000F931F93CF93DF937B018C01EA014115C3
:103B9000510521F0188219821A821B822FEFE2163A
:103BA0002FEFF2062FEF02072FEF120789F0D8014F
:103BB000C701082E8B2FB02D092E9A2FA02D8070B3
:103BC0009070A070B07F80509040A040B04E39F40B
:103BD000E091900DF091910D3097E1F53EC0D090BD
:103BE000900D7091910D60E08D2D972F9C01F90142
:103BF00014C086819781A085B1858E219F21A02345
:103C0000B123228133814481558182179307A40710
:103C1000B50731F00190F081E02D309751F71DC0CC
:103C2000209761F082859385A485B5850097A105CD
:103C3000B10521F088839983AA83BB838685978504
:103C4000892B41F4E284F384048515856F5F643029
:103C500059F603C02685378502C020E030E0C9014F
:103C6000DF91CF911F910F91FF90EF90DF9008951A
:103C70002F923F924F925F926F927F928F929F927C
:103C8000AF92BF92CF92DF92EF92FF920F931F936A
:103C9000CF93DF932B013C0149015A011601C091DA
:103CA000900DD091910D80E9C82E8DE0D82E04C0E2
:103CB0006E010990D881C02D209749F08E819F8197
:103CC000A885B98588169906AA06BB0688F380E1FF
:103CD00090E00E94B15AFC01009719F42FEF3FEFDA
:103CE00019C0482059206A207B2042825382648276
:103CF000758286829782A086B186E286F3860487E3
:103D0000158737862686D183C083D6018D939C93F1
:103D100020E030E0C901DF91CF911F910F91FF901A
:103D2000EF90DF90CF90BF90AF909F908F907F905B
:103D30006F905F904F903F902F900895DF93CF93B7
:103D400000D000D0CDB7DEB7FC0119821A821B82E9
:103D50001C82DE01119640E0808180538A3098F504
:103D600020E030E0C90163E0880F991F6A95E1F710
:103D7000220F331F820F931F2191332727FD309588
:103D800020533040280F391F808180333CF08A3324
:103D90002CF42F3F310531F328F315C02F3F3105A7
:103DA00009F088F44F5F2C9380818E3239F04430D3
:103DB00051F429813A814B815C8109C0443019F06A
:103DC00011963196C9CF2FEF3FEF4FEF5FEFB9015B
:103DD000CA010F900F900F900F90CF91DF9108952F
:103DE000AF92BF92CF92DF92EF92FF920F931F9309
:103DF000DF93CF93CDB7DEB727970FB6F894DEBF2A
:103E00000FBECDBF6C837D838E839F83E4E0EE2E57
:103E1000F12CEC0EFD1E0AE01DE06E010894C11CA1
:103E2000D11C5EE277E0A72EB12CAC0EBD1ED701EF
:103E30004C9130E0842F6AE00E94A861292F842FE2
:103E40000E94A861482FF601E30FF11D205D208339
:103E50003F5F882379F7932FF7011082D80106C0BE
:103E60003150F601E30FF11D80818D933323C1F7AB
:103E7000F801E90FF11DDF015D938D01EA14FB04E8
:103E800021F00894E11CF11CD2CF10828AE09DE061
:103E900027960FB6F894DEBF0FBECDBFCF91DF914E
:103EA0001F910F91FF90EF90DF90CF90BF90AF9058
:103EB00008952F923F924F925F926F927F928F92CE
:103EC0009F92AF92BF92CF92DF92EF92FF920F93A9
:103ED0001F93DF93CF9300D000D000D0CDB7DEB7D3
:103EE0001C014A015B0128013901C982DA82EB8297
:103EF000FC82DC011F968C911F9750969C91411576
:103F000051056105710581F48090A20D9090A30D7B
:103F1000A090A40DB090A50D81149104A104B1044A
:103F200019F42FEF3FEFAFC08D839E83ED81FE81AB
:103F300083869486A586B686411451046104710473
:103F400039F48FEF482E8FEF582E8FEF682E712C9B
:103F5000AD81BE8153964D925D926D927C92569743
:103F6000C301B201682179218A219B21A301920119
:103F7000EE24FF24870161010E94381E89819A8105
:103F8000AB81BC810097A105B10571F060E070E0E4
:103F900080E090E020E030E040E050E0E980FA800E
:103FA0000B811C810E94381EA3E9BDE0F10132960D
:103FB00089E001900D928150E1F7AD81BE811596A7
:103FC0006C91159716969C91169717965C9117977A
:103FD00018964C91189719963C9119971A962C910E
:103FE000892F862385238423832382238F3F81F097
:103FF000962B952B942B932B922B51F0ACE9BDE093
:10400000ED81FE81359686E001900D928150E1F7B9
:104010008092A20D9092A30DA092A40DB092A50D36
:104020004092A60D5092A70D6092A80D7092A90D16
:1040300089819A81AB81BC810097A105B105A1F46A
:104040008091AA0D9091AB0DA091AC0DB091AD0DEA
:1040500088259925AA25BB2584219521A621B7214C
:104060000097A105B10561F089819A81AB81BC817E
:104070008093AA0D9093AB0DA093AC0DB093AD0DB2
:104080000E9463219C01C90126960FB6F894DEBFF9
:104090000FBECDBFCF91DF911F910F91FF90EF9099
:1040A000DF90CF90BF90AF909F908F907F906F9058
:1040B0005F904F903F902F9008954F925F926F9234
:1040C0007F928F929F92AF92BF92CF92DF92EF92A8
:1040D000FF920F931F93DF93CF93CDB7DEB72A974D
:1040E0000FB6F894DEBF0FBECDBF562E472E2F83DE
:1040F000388749875A87370148010E946E3EFC0184
:10410000009709F4B0C08385833009F0ACC0FA830E
:10411000E983A785B0898C91863009F042C0258952
:1041200036892115310541F18E010D5F1F4FCF01F9
:1041300064E070E1A801F9010995E981FA81258916
:104140003689CF0165E070E1452D542DF9010995BF
:104150008B819C81AD81BE8181608B839C83AD838B
:10416000BE83E981FA8125893689CF0163E070E158
:10417000A801F90109950AC01596852D942D9C0179
:10418000F90186E001900D928150E1F789819A81D1
:104190004F81588569857A8594018301760165018F
:1041A0005EC0873109F05FC0C188D288252D342DCB
:1041B0008F819885A985BA85F60181A392A3A3A3CF
:1041C000B4A3E114F1040105110521F466246A94F5
:1041D000762C4301D60199966D927D928D929C9298
:1041E0009C972115310551F0F90180819181A281BF
:1041F000B381F60185A396A3A7A3B0A7C6010E9429
:10420000973DF601FF968081918167E171E0AE01F3
:104210004F5F5F4F0E947357C60140E65AEE60E061
:1042200070E00E94F93D892BF1F4D601DC968C9167
:10423000DC978930C1F491964D915D916D917C919F
:10424000949799960D911D912D913C919C979596DF
:10425000CD90DD90ED90FC90989789819A810E9495
:10426000591F9C0102C02FEF3FEFC9012A960FB6DC
:10427000F894DEBF0FBECDBFCF91DF911F910F919C
:10428000FF90EF90DF90CF90BF90AF909F908F9076
:104290007F906F905F904F900895AF92BF92CF92B2
:1042A000DF92EF92FF920F931F93AA24BB24650124
:1042B0000E945D201F910F91FF90EF90DF90CF90B3
:1042C000BF90AF90089580E28093920D80E490E0DB
:1042D00062E97DE040E250E00E945256892B19F4D9
:1042E00020E030E002C02FEF3FEFC9010895CF93E7
:1042F000DF93EC0180E490E062E97DE040E250E091
:104300000E945556892B71F48091920D803251F4A0
:1043100083E99DE0BE010E946463009719F420E0E8
:1043200030E011C0E2E9FDE080E2DF011D928A95F4
:10433000E9F73A96A9ECBAE086E00D900192815037
:10434000E1F72FEF3FEFC901DF91CF910895FB0116
:10435000A385B485109769F1828183FF2AC01C96DA
:104360008C911C9782958F70880F880F843108F18B
:10437000282F30E08585968582179307D4F0821B1D
:10438000930B928B818B892B71F01C968C911C97CF
:1043900082958F7090E0880F991F880F991FA80F42
:1043A000B91FB08BA78736872587CF010E94DF24EE
:1043B00003C0CF010E94FD5380E090E00895AF92CA
:1043C000BF92CF92DF92EF92FF920F93CF93DF9342
:1043D0005C01FC0167817085C385D4858D8582FD74
:1043E00071C0F501128A118A84E190E09687858771
:1043F000288139818A819B81998388833B832A83A1
:104400008D8584FF0FC084E08D8788859985AA8576
:10441000BB858C839D83AE83BF83188619861A86DD
:104420001B8620C02C813D814E815F8181FF10C0A1
:10443000022E252F502D032E342F402D2F5F3F4F5E
:104440004F4F5F4F022E252F502D032E342F402D1E
:10445000288739874A875B871C821D821E821F82BC
:1044600084E18D876B0180E58C871F861E861B8A01
:104470001A8A198A188AF501E584F6840E2CEF2C25
:10448000F02CFB01608971898289938924853585A7
:104490004685578506E00E945830DC01CB01F501C6
:1044A00045855685BE010E945130998B888BF60157
:1044B000448555856685778586E095010E9486311D
:1044C000892B19F4C5010E94FD5380E090E0DF9133
:1044D000CF910F91FF90EF90DF90CF90BF90AF9072
:1044E00008956F927F928F929F92AF92BF92CF92D8
:1044F000DF92EF92FF920F93DF93CF9300D0CDB76F
:10450000DEB76C01F62EE72E3A014115510531F464
:10451000DC0190968C918B7009F4B1C1F60180A1F9
:1045200081FF02C008E101C004E180E090E060E4A6
:10453000402F50E00E94E2554C01009709F483C1DE
:10454000FC01A384B484D60158968D919C9159970F
:10455000F501918380835E968D919C915F97938303
:104560008283000F000F048790963C919097232F31
:10457000277F90962C93909799968D919D910D9071
:10458000BC91A02D082E8B2FB02D092E9A2FA02D77
:1045900084839583A683B78324FF1FC080E185872A
:1045A000377ED60190963C93E0E4F0E0CE0EDF1E1D
:1045B000F60180819181A281B38120EC3FEFC20E90
:1045C000D31E082E8B2FB02D092E9A2FA02DF5016A
:1045D00080879187A287B38708C0D5011D961C925A
:1045E000F5011086118612861386D60190962C91BD
:1045F00021FF36C0E3E5F0E0CE0EDF1ED6018D913F
:104600009C91EDEAFFEFCE0EDF1E082E892F902D34
:104610009A838983D5011D968C911D9782601D9682
:104620008C932D7FF60120A381A592A5A3A5B4A507
:104630000196A11DB11D81A792A7A3A7B4A782E0EF
:10464000D50154968C93549784E055968C93559746
:10465000898156968C9356978A8157968C9347C03A
:104660006114710469F1C40160E8A3010E94E2557C
:104670004C01009729F4E1E6F0E0CE0EDF1EE7C022
:10468000FC01878590896F2D7E2DA3010E945463C4
:10469000C301A0E0B0E0F60121A532A543A554A5D1
:1046A000280F391F4A1F5B1FD60199962D933D9302
:1046B0004D935C939C97F50185858860858717C02D
:1046C00020FF15C0D5011D968C911D9781601D9608
:1046D0008C932E7FF60120A381A592A5A3A5B4A556
:1046E0000196A11DB11D81A792A7A3A7B4A724E499
:1046F00030E0C20ED31ED6012D913C91EFE0F0E0E8
:10470000CE0EDF1ED6018D919C91EDEAFFEFCE0E0D
:10471000DF1E2817390730F4D5011F961C921E9210
:104720001E9706C0022E232F302DF50137872687CE
:10473000D50151961C921E92509753961C921E9230
:104740005297F401E188F28885859685E80EF91E76
:104750000E2CEF2CF02CD60154966D917D918D91FD
:104760009C9157975A962D913D914D915C915D97F3
:1047700006E00E945830DC01CB01F40145855685E6
:10478000B5010E941B30D4011F966D917C9150970A
:1047900051964D915C9152970E945130F501918B49
:1047A000808B672839F4858590E083709070892B21
:1047B00009F453C0D4011D921C92D601D896ED91F4
:1047C000FC91D997309799F4D9969C928E92D8976C
:1047D0000E942B3BEFE5F0E0CE0EDF1E6160D601BC
:1047E0006D937C93E1EAFFEFCE0EDF1E09C0CF018F
:1047F0000190F081E02D3097D1F7FC019182808209
:1048000096012B5A3F4FF90180819181A281B3819A
:104810000097A105B10581F4F50184819581A681F8
:10482000B781082E8B2FB02D092E9A2FA02DF901BC
:1048300080839183A283B383C40160E00E94FE540D
:104840007C01009759F421E630E0C20ED31E87E3C5
:1048500090E0D6018D939C930CC07401F601428DBB
:10486000538D648D758D86E097010E948631892B6A
:1048700019F02FEF3FEF05C0C7010E94FD5320E064
:1048800030E0C9010F900F90CF91DF910F91FF9011
:10489000EF90DF90CF90BF90AF909F908F907F90E0
:1048A0006F900895CF93DF939C01DB011D968D914E
:1048B0009C911E974597A0F11B96ED91FC911C973A
:1048C0007496E901CD5ADF4F1AC0613019F0623099
:1048D00099F402C0319613C0528140E08381282FA1
:1048E00030E0242B352B888199812817390710F463
:1048F00039832883349603C08181E80FF11D6081DC
:10490000662371F01B968D919C911C979F01281B2B
:10491000390B1D968D919C911E9728173907ACF283
:10492000DF91CF910895CF93DF93EC01CF59DF4F03
:10493000798368831A921A921A921A92CD55D040AE
:104940008B89863018F08AE08B8B01C01B8ACE01E0
:104950000E948217CE01815B9F4F0E94973DCE013E
:10496000CA960E94973DCE018D599F4F0E94973D58
:10497000CE018B599F4F0E94973D80E090E0DF91E0
:10498000CF91089580911A0D90911B0D892B99F468
:104990008FEC9AE06CE57DE240E050E020E030E111
:1049A0000E941D3F90931B0D80931A0D892B19F4C3
:1049B0002FEF3FEF02C020E030E0C9010895CF9211
:1049C000DF92EF92FF920F931F93CF93DF937C01BF
:1049D000FC011182108280911A0D90911B0D892B80
:1049E00021F4C7010E94DF2142C0C090B20DD090D7
:1049F000B30DC114D10429F4F092B30DE092B20DBD
:104A00002EC0F701C585D68581859285C80FD91F2F
:104A100081899289C80FD91F00911C0D10911D0D1D
:104A20000050184F0C0F1D1F88EB9DE00E94953819
:104A300008171907C8F480911C0D90911D0D8C0F5B
:104A40009D1F90931D0D80931C0DC601F601C08023
:104A5000D180C114D104C9F7FC01F182E08284EB5A
:104A60009DE00E94A43D03C0C7010E94FD53DF9159
:104A7000CF911F910F91FF90EF90DF90CF9008950D
:104A8000FC01009719F42FEF3FEF0CC080A1886163
:104A900080A3CF0160E070E040E050E00E9471220E
:104AA00020E030E0C90108950F931F93CF93DF9367
:104AB000EC018B01DC01A35BBF4FED91FC911197E1
:104AC000309751F0CF010190F081E02D3097D1F770
:104AD000FC011183008302C06D937C93FE01EA5BAD
:104AE000FF4FD80151968D919C9152972081318131
:104AF000820F931F91838083FE01E05CFF4F5196EC
:104B00006D917C915297CB01AA2797FDA095BA2F62
:104B10002081318142815381820F931FA41FB51FD1
:104B200080839183A283B383FE01EC5BFF4F80817E
:104B300091816817790718F01182108204C0861BD2
:104B4000970B9183808328A1822F806188A3F8012D
:104B500080819181892B19F01182108202C0286115
:104B600028A3FE01E45BFF4F10811F5F1083193102
:104B70002CF1CA5BDF4F688179812796E881F98142
:104B8000CD54D040212F18C0818992898F3F910543
:104B900009F054F4CF010E946454C45BDF4F181B2A
:104BA0001883CC54D0400AC0215028303CF0681BF8
:104BB000790B0190F081E02D309731F7CE0160E064
:104BC00070E040E050E00E947122DF91CF911F9190
:104BD0000F9108951F93CF93DF93EC01162F8B89CC
:104BE000853009F466C0863088F4823051F1833014
:104BF00038F4882309F465C0813009F09EC01DC0D7
:104C0000833039F1843009F098C011C0883009F43C
:104C10008DC0893030F4863069F1873009F08DC05D
:104C20004DC08930C1F18A3009F087C07FC065303E
:104C300079F1663009F07AC03EC0633009F076C081
:104C400005C0633019F0643049F422C088A1826144
:104C50003EC0643009F471C0653020F4113009F0B1
:104C600065C06BC0653039F1663009F05FC088A15E
:104C700081602DC0673061F0683020F4663009F043
:104C800055C05BC0862F8950823008F04FC055C098
:104C900088A188611CC06A3019F420E030E002C0AD
:104CA0002FEF3FEF88A1886188A32115310581F09E
:104CB0003FC06830D9F588A1816109C06A30B1F57B
:104CC0003CC06130D1F1623089F588A1826088A34F
:104CD00081E01B8B8823B1F0CE0160E070E040E002
:104CE00050E00E947122892B69F0123059F4CF599B
:104CF000DF4F80E490E099838883CE0104960E9480
:104D00000F3D14C0153079F4CE01815B9F4F0E9496
:104D1000973DCE018D599F4F0E94973DCE018B59F3
:104D20009F4F0E94973D20E030E002C02FEF3FEF01
:104D3000C901DF91CF911F91089580E0CACFCF9331
:104D4000DF93EC019B01FA01DB0150964D915D91DF
:104D50006D917C9153974C8B5D8B6E8B7F8B80819B
:104D600091819F8F8E8F1C964D915D916D917C915D
:104D70001F974A8F5B8F6C8F7D8F84819581A68171
:104D8000B781082E8B2FB02D092E9A2FA02D8CAF16
:104D90009DAFAEAFBFAF8DA79EA7AFA7B8ABC05CAE
:104DA000DF4F0196A11DB11D88839983AA83BB8320
:104DB000C054D04086859785082E892F902D9EABB4
:104DC0008DABF901648575858685978540E050E057
:104DD0000E94BD1DFC01009729F10784F089E02D98
:104DE0008789908D8897CD5ADF4F28813981C355A7
:104DF000D0402115310519F08217930730F4CD5AB0
:104E0000DF4F99838883C355D040CD5ADF4F288127
:104E10003981C355D04089899A892817390710F4F8
:104E20003A8B298BDF91CF9108950F931F93CF93E6
:104E3000DF93EC01FC01E55AFF4F808191810196DF
:104E4000918380830197089720F0CE016CE370E096
:104E500013C0E8ADF9AD008111814A8D5B8D6C8D79
:104E60007D8D86E09F010E948631892B51F019AF1C
:104E700008AFCE0162E370E00E9493242FEF3FEF72
:104E800018C00E942B3BC15ADF4F61607983688351
:104E9000FE0136978081918127E28031920718F4D4
:104EA000880F991F02C080E29EE49183808320E0F6
:104EB00030E0C901DF91CF911F910F910895AF921A
:104EC000BF92CF92DF92EF92FF920F931F93CF93F7
:104ED000DF93EC01FB01BA01A084B184C284D384C6
:104EE0000A2CAD2CD02C0B2CBC2CC02C89A59AA53F
:104EF000ABA5BCA58A199B09AC09BD09B7FF04C0C5
:104F000088A1886188A3E3C08DA19EA1AFA1B8A5A7
:104F1000A816B906CA06DB0609F036C02481358119
:104F200046815781022E252F502D032E342F402DE0
:104F3000EDA4FEA40FA518A9D801C701821B930BED
:104F4000A40BB50BB7FD11C02E153F054007510747
:104F5000D9F489A99AA9ABA9BCA986017501E81A57
:104F6000F90A0A0B1B0B17FD0FC086859785082EC3
:104F7000892F902D9EAB8DAB2DA73EA74FA758AB89
:104F8000A9AABAAACBAADCAA2DA13EA14FA158A5D5
:104F9000D601C501821B930BA40BB50BB7FD97C0BF
:104FA000A216B306C406D506F9F488AD99AD892BCF
:104FB00009F48DC0672B09F08AC0858590E0837065
:104FC0009070892B09F083C08FA98F5F8FAB8330DE
:104FD00008F47DC01FAACE010E941527892B09F471
:104FE00076C02FEF3FEF75C01FAAADA2BEA2CFA221
:104FF000D8A686859785082E892F902D9EAB8DABE0
:10500000CB5ADF4F88819981AA81BB81C555D04099
:105010000097A105B10549F08A199B09AC09BD09A2
:10502000B7FF03C0CE010E94C42ECB5ADF4F1882B7
:1050300019821A821B82C555D04035C0DB011B96F0
:10504000ED91FC911C972481358146815781022E78
:10505000252F502D032E342F402D51968D919C914C
:105060005297AA2797FDA095BA2F280F391F4A1FDC
:105070005B1F858590E083709070892B21F02F5FF6
:105080003F4F4F4F5F4FD601C501821B930BA40BBF
:10509000B50BB7FD0FC0FB018081918199AF88AF3F
:1050A000CB010E94FD5368AD79AD6115710509F022
:1050B000C5CF1BC00E942B3BC15ADF4F6160798373
:1050C0006883CF55D040C55ADF4F1982188220E03F
:1050D00030E0C901DF91CF911F910F91FF90EF90C8
:1050E000DF90CF90BF90AF900895C15ADF4F1982E3
:1050F0001882E7CF2F923F924F925F926F927F92EA
:105100008F929F92AF92BF92CF92DF92EF92FF92D7
:105110000F931F93DF93CF93CDB7DEB72C970FB6C6
:10512000F894DEBF0FBECDBF9C878B876B01DB0180
:105130001B968D909C901C97F401B584DC015396CE
:105140008C91853009F4A5C3863098F4823009F437
:10515000FDC1833038F4882309F40CC4813009F090
:105160000DC4E1C1833009F456C2843009F006C48D
:1051700010C0883009F4D2C3893038F4863009F47D
:10518000E3C2873009F0FAC39DC3893009F0F6C342
:1051900039C3EB85FC8505A8F6A9E02DFA83E983E0
:1051A000AB85BC8595962D903D904D905C909897E1
:1051B0002F82388649865A86B2FE0AC0CB010E94E9
:1051C000FD538B859C8566E370E00E9493248BC120
:1051D000B1FE1AC0F40184819581A681B781082EA1
:1051E0008B2FB02D092E9A2FA02DEB85FC8524AD99
:1051F00035AD46AD57AD82179307A407B50731F01B
:10520000CB010E94DF216FC1B4FC04C0C6010E9423
:10521000FD5369C1DB0151964D915C9152978B858D
:105220009C85B4010E945F27EB85FC85E05CFF4F05
:10523000E080F18002811381E054F040FC87EB872D
:10524000D40114962D913D914D915C911797DA01FF
:10525000C901082E8B2FB02D092E9A2FA02D1701D2
:105260002801281A390A4A0A5B0A57FE85C0D60166
:1052700051964D915C9152974115510509F46BC0BF
:105280008091360D9091370D889615962D913C9111
:105290001697820F931F840F951F9093370D80935D
:1052A000360D81599C40B0F0C6010E94FD5380919B
:1052B000360D9091370D8897F60121893289821B2E
:1052C000930B25813681821B930B9093370D80932E
:1052D000360D44C0EB85FC85EF5AFF4F608171812C
:1052E0005F0134C0D4011496ED90FD900D911C9196
:1052F00017970E2CE12E102D0F2CF02E002DDB0118
:105300001B96ED91FC911C97248135814681578134
:10531000022E252F502D032E342F402DD801C701EA
:10532000821B930BA40BB50BB7FF07C0F501D1820D
:10533000C082D6016D937C9311C0E216F306040778
:10534000150749F05B01DB016D917C9161157105D9
:1053500009F0C8CF17C3C6010E94FD53EB85FC8539
:1053600080A1886180A38B859C8560E070E040E02F
:1053700050E00E947122B7C0022E252F502D032E1F
:10538000342F402D2E153F054007510719F1AB85ED
:10539000BC8590968C919097886190968C9390970D
:1053A000FD01E159FF4F80819181A281B381019676
:1053B000A11DB11D80839183A283B383C6010E9486
:1053C000FD538B859C8560E070E040E050E00E94DA
:1053D000712273C0F60181899289892B09F46AC010
:1053E0008B859C85B6010E94542571E5872E912CF2
:1053F0002B843C84820C931C60E4662E712C620C1E
:10540000731C4BC0C384D484D60114964D915D9116
:105410006D917C9117971A012B01022C252C502C91
:10542000032C342C402CD301ED90FD900D911C9158
:10543000D801C70182199309A409B509B7FD33C082
:1054400080819181D4018D939C938091360D9091B0
:10545000370D889721893289821B930B25813681EC
:10546000821B930B9093370D8093360D042E472F9C
:10547000702D052E562F602D4E155F0560077107A4
:1054800049F48B859C85BF010E945425F6018585D2
:10549000B82A03C0CF010E94FD53D401ED91FC91C5
:1054A000309709F0AFCF8B859C85815B9F4F0E9421
:1054B000A43D03C0C6010E94FD53B0FE14C0EB859D
:1054C000FC85E05CFF4F80819181A281B3810196D0
:1054D000A11DB11D80839183A283B3838B859C859D
:1054E00065E00E94EA25EB85FC8583898430A9F478
:1054F00085A996A929803A802816390670F085A1D9
:1055000096A1A7A1B0A54F80588469847A84841598
:105510009505A605B70509F43CC28B859C85CA96FE
:105520000E94973D36C256E1552EB52042E0642ECA
:10553000B61409F01FC2DB0117966D917C91189784
:105540008B859C85A4010E949F2661C06B2D70E015
:1055500030E1A32EB12CA622B72264FF2AC0F401A9
:1055600080859185A285B385082E8B2FB02D092EBD
:105570009A2FA02DEB85FC85E1A0F2A003A114A138
:105580008E199F09A00BB10B0196A11DB11D21A57C
:1055900032A543A554A52F5F3F4F4F4F5F4F2E19A4
:1055A0003F09400B510B281739074A075B0708F4DE
:1055B000E1C162FF0AC0AB2809F4E0C18B859C857C
:1055C0006DE370E00E949324D9C161FFD7C1D60179
:1055D00017966D917C9118978B859C85A4010E94EC
:1055E0009F26AB28A1F0F601418952898B859C85C5
:1055F000B4010E945F278B859C8564E00E94EA25A8
:105600008B859C858B599F4F0E94A43DB7C18B858C
:105610009C8563E080C1B2FE2AC02B853C852D5954
:105620003F4FD9018D919C911197A356B040BC87F3
:10563000AB87892B29F0CD0161E00E94EA2506C0E5
:105640008B859C856DE370E00E949324C6010E94C7
:10565000FD53EB85FC85E15AFF4F11821082EF5517
:10566000F040FC87EB87CF010E94821792C1B1FC0A
:1056700081C1B4FE83C1F40180859185A285B38583
:10568000082E8B2FB02D092E9A2FA02DEB85FC858F
:10569000E5A0F6A007A110A58E199F09A00BB10BDC
:1056A0000196A11DB11D21A532A543A554A52F5FCB
:1056B0003F4F4F4F5F4F2E193F09400B510B28179B
:1056C00039074A075B0708F455C1DB0151964D9134
:1056D0005C9152978B859C85B4010E945F27F601EF
:1056E00081899289892B31F08B859C85B6010E9436
:1056F000542503C0C6010E94FD53B0FE13C0EB85C4
:10570000FC85E05CFF4F80819181A281B38101968D
:10571000A11DB11D80839183A283B3838B859C855A
:1057200065E0B4C08B859C8564E00E94EA258B858A
:105730009C858D599F4F0E94A43D8B859C858B59DC
:105740009F4F0E94A43D25C11B2DB2FCE9C0B1FCB6
:1057500011C1B4FE13C1DB0151964D915C9152977A
:105760008B859C85B4010E945F27EB85FC8521A574
:1057700032A543A554A585A196A1A7A1B0A5281738
:1057800039074A075B0721F4CF0169E00E94EA2547
:10579000D60151968D919C915297892B61F08B8502
:1057A0009C85B6010E9454258B859C85815B9F4F0B
:1057B0000E94A43D03C0C6010E94FD5310FFE9C032
:1057C000EB85FC85E05CFF4F80819181A281B381F4
:1057D0000196A11DB11D80839183A283B383EB85C4
:1057E000FC85E35AFF4F11821082ED55F040FC8793
:1057F000EB878389893011F4CF0147C08B859C8565
:1058000067E044C01B2DB2FC8BC0B1FCB3C0B4FE3A
:10581000B5C0DB0151964D915C9152978B859C856B
:10582000B4010E945F27F60181899289892B61F07A
:105830008B859C85B6010E9454258B859C85815B58
:105840009F4F0E94A43D03C0C6010E94FD5310FF5C
:10585000A0C0EB85FC85E05CFF4F80819181A28137
:10586000B3810196A11DB11D80839183A283B3836F
:105870002B853C85235A3F4FD90111961C921E92CD
:10588000AD55B040BC87AB87CD016AE00E94EA25E8
:1058900080C0B2FE0AC0CB010E94FD538B859C855F
:1058A00066E370E00E94932474C0B1FC63C0B4FE50
:1058B00065C0FB01418952898B859C85B4010E949A
:1058C0005F275CC0B2FC2CC0B1FC54C0B4FE56C013
:1058D000DB0151964D915C9152978B859C85B4016B
:1058E0000E945F27EB85FC8521A532A543A554A521
:1058F00085A196A1A7A1B0A5281739074A075B077C
:10590000E9F5E35AFF4F11821082ED55F040FC8714
:10591000EB87CF016AE00E94EA2530C0B2FE06C0E4
:10592000C6010E94FD538B859C8521C0B1FC22C01D
:10593000B4FE24C0DB0151964D915C9152978B854A
:105940009C85B4010E945F27C6010E94FD53EB8530
:10595000FC8521A532A543A554A585A196A1A7A1A3
:10596000B0A5281739074A075B0799F4CF010E94B1
:10597000E41B0FC0C6010E94DF210BC0C6010E94BC
:10598000FD5307C0D501CD92DC92F6011182108241
:10599000E5CC2C960FB6F894DEBF0FBECDBFCF91ED
:1059A000DF911F910F91FF90EF90DF90CF90BF900C
:1059B000AF909F908F907F906F905F904F903F90AF
:1059C0002F9008950F931F93CF93DF93EC018B8952
:1059D000882349F0CF59DF4F88E390E0998388838B
:1059E00028E330E063C0CE0161E00E94EA25088D23
:1059F000198D4EE15DE068E020E030E0722FDA01C1
:105A0000ED91FC913097A9F00384F485E02D82811B
:105A100093818017910769F4683061F0D901A25D24
:105A2000B24FE62FF0E0E25DF24F9C918081891742
:105A300008F0762F2F5F3F4F4E5F5F4F28303105C4
:105A400011F0672FDBCF7830B1F0E72FF0E0EE0FE9
:105A5000FF1FE25EF24F0081118111821082011559
:105A6000110549F0CE01B8010E945224CE01B801BF
:105A70000E947A280FC0C959DF4F488159816A8135
:105A80007B81C756D040CE018D599F4F0E94F93D72
:105A9000892B19F420E030E009C01B8ACF59DF4F71
:105AA0008CE390E0998388832CE330E0C901DF9197
:105AB000CF911F910F91089580E20E94A239CC24CA
:105AC0005524539401C0CC24C39483E08C1558F022
:105AD00084EB9DE048EC50E060E070E00E94F93D0E
